:100000000AC011C010C00FC00EC00DC00CC00BC084
:100010000AC009C008C011271FBFCFE5D0E0DEBF6E
:10002000CDBF02D03FC0ECCF45E041B942B940E07E
:1000300012C051E052B96FE077E261507040E9F7C9
:1000400000C0000012B96FE077E261507040E9F73C
:1000500000C000004F5F4A3060F34FE453EC415062
:100060005040E9F700C0000040E012C054E052B92F
:100070006FE077E261507040E9F700C0000012B90C
:100080006FE077E261507040E9F700C000004F5F19
:100090004A3060F34FE453EC41505040E9F700C060
:0800A0000000C5CFF894FFCF6A
:00000001FF
