:100000000AC0FECFFDCFFCCFFBCF27C028C0F8CF62
:10001000F7CFF6CFF5CFF894EE27F8EDA895ABB76C
:10002000A77FABBFFCBFE1BF80E2A0E4B0E0ED93EF
:100030008A95E9F7EFE5EDBFE0E0EEBFC8E4D0E078
:1000400039C02A932FEF203031F0E22FF0E0E15059
:10005000F0402E2FF8CF2991089510981895AA9363
:10006000BA93EA93FA93EFB7EA93E0E0F0E0F9BDD0
:10007000E8BDE8A1F9A1E150F040E8A9F9A9E8A19B
:10008000F9A1E050F04021F4E8EEF3E0E8A9F9A985
:10009000A8A1B9A1A43FE1E0BE0714F0109A03C0E3
:1000A0001098E4E0EBBDE991EFBFF991E991B991C6
:1000B000A9911895C15020E030E0E8EEF3E0E8A9FE
:1000C000F9A9E8EDECBFE0E0E7BFE8EDECBFE0E068
:1000D000E6BF089A109AEEBDE2E0EDBDE0E0ECBDAF
:1000E000E4E0EBBDE0E0E9BDEEEDF3E0F7BDE6BD39
:1000F000E8EEF3E0F5BDE4BDE6E0E7BBE3E8EDBB29
:10010000E0E8EFBB7894A8A1B9A1A536E0E0BE076E
:10011000BCF5E2E0EBBBE0E0E88320E030E0A88162
:10012000A43060F4EE9A8DDFEE99FECFE9B3F0E0F3
:100130002E0F3F1FE881EF5FE883F1CF46B557B53B
:10014000E8EEF3E0E21BF30B2E2F3F2F421753078D
:100150003CF44E3DE3E05E0714F44F5F5F4F06C092
:100160004D32E1E05E0714F04150504057BD46BDAE
:100170002F3DE3E03E0714F4E6E001C0E4E0EBBD10
:10018000A8A1B9A1A835E2E0BE071CF1E1E0EBBBF4
:10019000E0E0E88320E030E0A881A43060F4EE9A4B
:1001A00050DFEE99FECFE9B3F0E02E0F3F1FE8815C
:1001B000EF5FE883F1CFE1B1E13031F42539E2E0DE
:1001C0003E070CF4089805C0243EE2E03E070CF020
:1001D000089A99CFFFCFFFFFFFFFFFFFFFFFFFFF51
:1001E000FFFFFFFFFFFFFFFFFFFFFFFFFFFFFFFF1F
:1001F000FFFFFFFFFFFFFFFFFFFFFFFFFFFFFFFF0F
:10020000FFFFFFFFFFFFFFFFFFFFFFFFFFFFFFFFFE
:10021000FFFFFFFFFFFFFFFFFFFFFFFFFFFFFFFFEE
:00000001FF
